:020000040800F2
:10000000B07F002089010008096A0008594B0008E8
:100010008D5300087527000819DB00080000000058
:100020000000000000000000000000009B0100082C
:10003000E52B000800000000130A00088DCE000820
:10004000A3010008A3010008A3010008A301000800
:10005000A3010008A3010008A3010008A3010008F0
:10006000A3010008A3010008A3010008A3010008E0
:10007000A3010008A3010008A3010008A3010008D0
:10008000A3010008A3010008A3010008A3010008C0
:10009000A3010008A3010008A3010008A3010008B0
:1000A000A3010008A3010008A3010008A3010008A0
:1000B000A301000839D00008A3010008A30100082B
:1000C000A3010008A3010008A3010008A301000880
:1000D000A301000819D5000879D60008EDD600085C
:1000E000A3010008A3010008A3010008000000000C
:1000F0000000000000000000000000000000000000
:1001000000000000A3010008A30100080000000097
:1001100000000000000000000000000000000000DF
:10012000A3010008A3010008A3010008A30100081F
:1001300000000000000000000000000000000000BF
:10014000000000000000000000000000A301000803
:100150000000000000000000A3010008A301000847
:10016000A30100080000000000000000A301000837
:10017000DFF810D000F094FB00480047991C0108FC
:10018000AFF30080B07F0020064880470648004754
:10019000FEE7FEE7FEE7FEE7FEE7FEE7FEE7FEE737
:1001A000FEE7FEE7A9CE00087101000872B67047AD
:1001B00062B67047EFF3108072B6704780F3108814
:1001C000704730BF704720BF7047B0FA80F070476B
:1001D00090FAA0F0B0FA80F0704790FAA0F0704763
:1001E0002DE9F05F0546002092469B46884606466C
:1001F000814640241BE0284641464746224600F0FF
:1002000072FA53465A46C01A914110D31146184605
:10021000224600F059FA2D1A67EB01084F46224694
:100220000120002100F050FA17EB00094E41201E7A
:10023000A4F10104DFDC484631462A464346BDE8C6
:10024000F09F40EA01039B0703D009E008C9121F91
:1002500008C0042AFAD203E011F8013B00F8013B80
:10026000521EF9D27047D2B201E000F8012B491EAC
:10027000FBD270470022F6E710B513460A46044643
:100280001946FFF7F0FF204610BD30B505462A4657
:100290000B4612F8010B13F8014B08B1A042F8D03D
:1002A0001CB1002802D06D1CF1E7284630BD421C6D
:1002B00010F8011B0029FBD1801A704730B50546A4
:1002C0000020034600E05B1C934205D2EC5CC85C56
:1002D000201A01D1002CF6D130BD000070B50F4DB1
:1002E00000B92868002412E00A4602E09E4203D0CA
:1002F000521C1378002BF9D1DAB2224305D02BB16E
:1003000024B1002100F8011B04E00446401C0678DB
:10031000002EE9D12860204670BD0000380700207B
:1003200070B506460FF036FC046805460A22002127
:10033000304600F0E8F92C6070BDF0B480EA0102AC
:10034000D40F4200B2EB410F02D2024608461146DA
:100350004A0042D0C30DDDB2C1F3C752AD1A202D01
:1003600035DAC1F3160141F4000204B15242C5F17D
:10037000200602FA06F12A411044B3EBD05F23D0E5
:10038000C4B1012DA0EBC35009DCF0BC4FF000421A
:1003900002EAC352DBB200F5000000F0F5B94000FC
:1003A00000F1807000EBC350A0F1807040EAD17082
:1003B000490009E0490841EAC071A0EBC35000F5CB
:1003C0000000400800EBC350F0BC00F0D4B961421B
:1003D000012202EB4101001BF6E7F0BC704781F0FF
:1003E0000041AAE780F00040A7E780EA010210B5CB
:1003F00002F00043400022D04A001FD0010E01EB62
:100400001261C0F35600C2F3560240F4000042F4F9
:100410000002A0FB022000047F39140400D0401C1D
:1004200050EA124001D44000491EC2B20C0604EB4F
:10043000D010401C4008802A02D003E0002010BDEC
:1004400020F00100002900DA0020184310BD30B46C
:1004500080EA010202F0004530F0004221F0004045
:1004600013D090B1C30DD40DC2F31601C0F3160022
:10047000E41A41F4000140F400027D34914201D3BA
:10048000641C00E04900002C02DA30BC00207047F8
:100490004FF400000023914201D3891A034340081E
:1004A0004FEA4101F7D151B1914202D14FF00041E1
:1004B00005E002D24FF0010101E06FF0010103EB12
:1004C000C450284430BC00F056B92DE9FE4F81EAF3
:1004D000030404F0004421F0004100944FF0000BAD
:1004E00023F0004350EA01045ED052EA03045BD0DB
:1004F000C3F30A54C1F30A552C44A4F2F334019413
:10050000A0FB0254C1F3130141F48011C3F31303A0
:1005100043F4801301FB024400FB034E840A970A54
:1005200044EA815447EA8357A4FB076802958D0A81
:1005300005FB07854FEA932C04FB0C542705029D0D
:100540004FEA065847EA1637B5EB08056EEB070C7D
:10055000870E920E47EA811742EA8312A7FB020137
:10056000B6EB0B0164EB00042B0D43EA0C335E1871
:1005700044EB1C50DA465146E7FB0201C5F3130475
:100580004FEA0B3343EA14534FEA0432019C43EA27
:100590000603A4F10C040294009CCDE900B400F021
:1005A00030F903B0BDE8F08F00200146F9E796234B
:1005B0000022114600F0E8B820F00040C10DC0F361
:1005C000160040F400007F2901DA002070479629C8
:1005D00003DCC1F19601C8407047963988407047E6
:1005E00000F0004230F000400AD0C10D01F560710A
:1005F000C0F3160042EA0151C20840071143704798
:10060000002001467047000030B5041E71F100045F
:1006100004DB4FF00044404264EB0101141E73F10F
:10062000000405DB1C464FF00043524263EB040319
:100630008B4208BF824230BD30B5041E71F1000408
:1006400004DB4FF00044404264EB0101141E73F1DF
:10065000000405DB1C464FF00043524263EB0403E9
:10066000994208BF904230BD01F0004330B421F000
:10067000004150EA010206D00A0DA2F56072C1F3F2
:100680001301002A02DC30BC00207047440F44EA0A
:10069000C104C100E01830BC00EBC25000F06BB8E0
:1006A000002801DBC0F10040002901DBC1F100415D
:1006B00081427047002801DBC0F10040002901DBC6
:1006C000C1F1004188427047202A04DB203A00FA39
:1006D00002F1002070479140C2F1200320FA03F399
:1006E000194390407047202A04DB203A21FA02F097
:1006F0000021704721FA02F3D040C2F1200291405C
:100700000843194670472DE9F04791460F46804649
:100710000446002614F8015B2DB100F0D3F8006800
:10072000405DC007F6D12B2D02D02D2D18D0641EB0
:100730004A463946204600F0C9F827B13968A14237
:1007400001D1C7F8008071054FF002040BD540427B
:10075000002803DD0FF01EFA0460A007BDE8F08753
:1007600046F48066E4E70028F8DA0FF013FA046034
:100770006FF00040F2E70029A8BF7047401C490015
:1007800008BF20F00100704710B4B0FA80FC00FAF6
:100790000CF050EA010404BF10BC704749B1CCF121
:1007A000200421FA04F411FA0CF118BF01212143AD
:1007B0000843A3EB0C01CB1D4FEA00614FEA102068
:1007C00042BF002010BC704700EBC350104400290A
:1007D000A4BF10BC7047401C490008BF20F00100B6
:1007E00010BC704710B5141E73F1000408DA401CE9
:1007F00041F1000192185B411A4301D120F0010040
:1008000010BD2DE9F04D92469B4611B1B1FA81F22F
:1008100002E0B0FA80F220329046FFF755FF04461E
:100820000F4640EA0A0041EA0B0153465A46084384
:1008300013D0114653EA010019D0C8F140025046C6
:10084000FFF751FF05460E46504659464246FFF710
:100850003BFF084305D0012004E020463946BDE8AF
:10086000F08D0020054346EAE0762C4337430A9892
:100870006305E40AA0EB08000022FD0A44EA47549D
:100880000A3002D500200146E9E701051019694147
:10089000DDE9084500196941BDE8F04DA2E7000017
:1008A000064C074D06E0E06840F0010394E80700BD
:1008B00098471034AC42F6D3FFF75EFC2C55010884
:1008C0004C55010800487047545201082DE9F05F6B
:1008D00082460078002715468B460AF10104B94686
:1008E000302801D09DB113E014F8010B01277828BE
:1008F00003D0582801D045B10AE00DB1102D07D121
:100900000027102514F8010B02E0082500E00A2555
:100910000026B0460EE005FB080005FB06F10127A6
:1009200001EB10461FFA80F8B6F5803F00D3B946B8
:1009300014F8010B294600F018F80028EBDABBF197
:10094000000F05D00FB1641E00E05446CBF8004004
:10095000B9F1000F06D00FF01DF902210160C81E89
:10096000BDE8F09F48EA0640FAE73A2800D230385E
:1009700020F02002412A01D3A2F13700884201D39E
:100980004FF0FF30704770B58C1810F8015B15F010
:10099000070301D110F8013B2A1106D110F8012BF1
:1009A00003E010F8016B01F8016B5B1EF9D12B0716
:1009B00005D40023521E0DD401F8013BFAE710F8CC
:1009C000013BCB1A921C03E013F8015B01F8015BB9
:1009D000521EF9D5A142D8D3002070BD1D484FF05A
:1009E000FF010170002080F309881B48016881F332
:1009F00008881A484FF08051016062B6FEE7174838
:100A00004FF080510160704714484FF080510160F1
:100A1000704772B6EFF3098028B1203880E8F00FF4
:100A20000F490968086000B50E4880475DF804EB7F
:100A30000D480E490A78027009480D490A6802609B
:100A4000106890E8F00F203080F309884EF0F40E23
:100A500062B6704722ED00E09C00002004ED00E04B
:100A60006401002019800008E2000020E30000205B
:100A70006801002021B1826842F00102826003E037
:100A8000826822F001028260704721B1826842F4DC
:100A90008072826003E0826822F480728260704714
:100AA000014600208A6802F004020AB1012000E039
:100AB00000207047014600208A6802F008020AB14F
:100AC000012000E00020704730B5024600200023DE
:100AD00050680F4C20400D790C6844EA05242043EF
:100AE000506090680B4C2040D1E902542C434D7962
:100AF00044EA450420439060D06A20F470000C7CE6
:100B0000641EE4B2234340EA0350D06230BD0000CB
:100B1000FFFEF0FFFDF7F1FDF0B504460D460020A5
:100B20000021092D11DDE068A5F10A0606EB460754
:100B3000072606FA07F18843A5F10A0606EB4606E2
:100B400003FA06F10843E0600CE0206905EB450775
:100B5000072606FA07F1884305EB450603FA06F176
:100B600008432061072A0FDA606B561E06EB8607E2
:100B70001F2606FA07F18843561E06EB860605FA7D
:100B800006F10843606322E00D2A0FDA206BD61FBE
:100B900006EB86071F2606FA07F18843D61F06EBE9
:100BA000860605FA06F10843206310E0E06AA2F128
:100BB0000D0606EB86071F2606FA07F18843A2F109
:100BC0000D0606EB860605FA06F10843E062F0BD65
:100BD000816841F008018160704721B1826842F468
:100BE000A002826003E0826822F4A0028260704763
:100BF000816841F00401816070470021016001714A
:100C000041718160C1600121017470472DE9F04795
:100C100090B00746894690461E4614210BA8FFF760
:100C200029FB142106A8FFF725FB78217E48FFF752
:100C300021FB7E48D0F80A007B4908617C48007E91
:100C4000012805D1022178486C3002F01DF819E026
:100C500078480078012805D1032173486C3002F0F0
:100C600013F80FE0744890F866020B2805D10321B1
:100C70006D486C3002F008F804E002216A486C30DC
:100C800002F002F86A48007E01280FD1002000F02F
:100C900001FA05461DB9002010B0BDE8F087052215
:100CA00005F10B0160481C300CF03EF86248406BC7
:100CB0000A21B0FBF1F05C49486139465A483030AE
:100CC00002F08AF85A48007E012819D100200DF060
:100CD00083FA012828D1554890F839000106534875
:100CE00090F83A0041EA0041504890F83B0041EA50
:100CF00000204E4991F83C1008434B49086013E02E
:100D00004A4890F839000106484890F83A0041EA0C
:100D10000041464890F83B0041EA0020434991F8E1
:100D20003C1008434049086049463F48623001F0A2
:100D3000ABFF41463C48001D01F0A6FF3E48D0F8FD
:100D40006202394988613C4890F8381090F839209F
:100D500090F83A3090F83C00CDE9023204910190CD
:100D6000354890F83D000090334890F83E00A0F1DF
:100D7000640332A214210BA80EF0F2FE0446601C9C
:100D800028B9214635A00EF0DBFE002084E72A4872
:100D900090F83F1090F8402090F8413090F84300D0
:100DA000CDE9023204910190234890F8440000906C
:100DB000214890F84500A0F1640320A2142106A860
:100DC0000EF0CEFE0446601C28B9214623A00EF08A
:100DD000B7FE002060E714220BA913483A30FFF752
:100DE00030FA142206A910484E30FFF72AFA2021C3
:100DF0000D4880F8611080F84D104FF47A70B6FB02
:100E0000F0F100FB116010B94FF47A7005E04FF477
:100E10007A70B6FBF0F100FB11608246024A0221B3
:100E20000AF0B8FB012037E764750020106200204B
:100E3000E875002054620020083E00203230253042
:100E400032642D253032642D253032642D25303228
:100E5000642D253032642D2530326400736E70723B
:100E6000696E7466206572726F722C2074686520DA
:100E70006C656E20697320256400000010B50020A9
:100E80000A498880C88008814881782107480C3049
:100E9000FFF7F0F9782105488430FFF7EBF9782166
:100EA0000248FC30FFF7E6F9012010BD88720020EF
:100EB0002DE9FE4F04460D4603F0DEF807460020FC
:100EC0000290019014B1062D00DB17B90020BDE897
:100ED000FE8FA67894F803806078217840EA012993
:100EE0000B2D4CD90B2243A12046FFF7E7F9F8B9A7
:100EF000A5F10B00102805D9112141A00CF05AFAD8
:100F00000020E4E743480021016041608160C16046
:100F1000A5F10B0204F10B01FFF793F92C233D4AD5
:100F20000021012010F08CFB14213BA00CF042FAB0
:100F30000D223FA12046FFF7C1F900BBA5F10D002E
:100F4000102805D913213EA00CF034FA0020BEE78A
:100F500030480021C161016241628162A5F10D0248
:100F600004F10D011C30FFF76CF92C23294A0021F4
:100F7000012010F065FB162136A00CF01BFA45F697
:100F8000A520814534D1F01CA84201D000209EE765
:100F9000B8F1830F2CD16079217940EA012AA07938
:100FA00040064FEA106BE01D0090BAF5805F19D142
:100FB000B01C215C701C205C41EA00200190B01C38
:100FC000205C00F07F00029039799DF8080061F301
:100FD000DF1000F580500199884208D102A801F085
:100FE000CDFD04E05A465046009901F0D3FD00BF04
:100FF00001206CE77365742070696C6549643A0080
:101000007365742070696C654964206661696C0D54
:101010000A000000E87500207365742070696C6533
:10102000496420737563636573730D0A00000000E3
:10103000736574205A4670696C6549643A00000013
:10104000736574205A4670696C65496420666169ED
:101050006C0D0A00736574205A4670696C654964AA
:1010600020737563636573730D0A0000014609B14F
:101070000020704701480078FBE700008303002050
:1010800001460A2901DD002070470148405CFBE76A
:10109000B95A002010B5044620460DF0FBF810BDEB
:1010A0000146012901DB0020704701EBC10000EB84
:1010B0000110024A02EBC000401CF5E71476002044
:1010C00001480078704700001003002001460A29FB
:1010D00001DD002070470148405CFBE7B75A002063
:1010E0000146012901DB00207047C1EBC100024A23
:1010F00012F82000F8E70000F44F00200148407982
:1011000070470000B65A0020014800787047000080
:10111000B65A00200146074890F86600884201DC74
:101120000020704701EB011000EBC000024A02EB07
:101130008000F6E77E020020D450002010B53D4824
:101140004089401C3B4948814FF6FF7008810846A2
:101150000088888008468088401EC88008468088AD
:101160004FF47A7190FBF1F201FB120008B90846C6
:1011700007E0304880884FF47A7190FBF1F201FB70
:10118000120084B22B4A0C32012120460AF002FAE6
:10119000782228490C3101F1F000FFF752F8254878
:1011A000C088002819DD2348C0884FF47A7190FB6D
:1011B000F1F201FB120008B9084607E01D48C0889B
:1011C0004FF47A7190FBF1F201FB120084B2194ADC
:1011D0008432012120460AF0DDF91648808820B9C2
:1011E0000021154801F0D0FF22E012488088012834
:1011F0000FD112490F480C3001F0D6FE0D4841893D
:101200004FF4FC5008F0FAFD00210C4801F0BCFF3F
:101210000EE00B4907480C3001F0C6FE0548418935
:101220004FF4F85008F0EAFD0021054801F0ACFF4A
:10123000012010BD88720020D0060020BC060020CE
:10124000A806002070B5044640E038484089401C9C
:10125000364948810846808808810846C0888880C9
:101260000846C088401EC88078220C3101F1F00089
:10127000FEF7E7FF78222D498431A1F17800FEF7CF
:10128000E0FF2A48C08800281FDD28484089B0F5C3
:101290007A7F1ADA2548C0884FF47A7190FBF1F210
:1012A00001FB120008B9084607E02048C0884FF447
:1012B0007A7190FBF1F201FB120085B21B4A843275
:1012C000012128460AF066F900E004E0201EA4F19E
:1012D0000101CCB2B9D100BF1448C08820B1134875
:1012E0004089B0F57A7F0FDB114910480C3001F0CE
:1012F0005BFE0E4841894FF4FC5008F07FFD002151
:101300000B4801F041FF0EE00A4908480C3001F09B
:101310004BFE064841894FF4F85008F06FFD00215C
:10132000044801F031FF012070BD000088720020E8
:10133000BC060020A806002070B5044654E04648CC
:101340004089401E4449488108468088C880084634
:101350000089888078220C3101F17800FEF771FF56
:1013600078223D49FC31A1F1F000FEF76AFF3A48CE
:101370000089002824DD38480089374909688842F7
:101380001ED835480089401C334908810846008929
:101390004FF47A7190FBF1F201FB120008B9084694
:1013A00007E02D4800894FF47A7190FBF1F201FBC0
:1013B000120085B2284AFC32012128460AF0EAF8D8
:1013C0002548008928B124480089234909688842B2
:1013D0000AD922480078401C2049087000201E4984
:1013E00008810120488104E0201EA4F10101CCB253
:1013F000A5D100BF1948007802280DD116480089F0
:1014000050B90020164988700021164801F0BCFE32
:101410000020124908701CE00F4880884FF6FF71C9
:10142000884207D100200E49887000210D4801F044
:10143000ABFE0EE00C4908480C3001F0B5FD064843
:1014400041894FF4F85008F0D9FC0021064801F01A
:101450009BFE012070BD000088720020480400201F
:10146000440400208C040020A80600200246032922
:1014700000DA0AB100207047014801700120FAE744
:101480008303002002460A2A01DD0020704702483B
:10149000815400BFFAE70000B95A002001460D4808
:1014A00090F86600884201DC00207047094890F8F7
:1014B0006600012804D10020074A1070074A107006
:1014C00000220548401C4254801C42540A304254B9
:1014D0000120EAE77E020020B65A00201003002017
:1014E00010B5012800DB10BDC0EBC002054B03F8AE
:1014F00022100022C0EBC003024C04EB83031A76D7
:1015000000BFF0E7F44F002001460248417101207E
:1015100070470000B65A00200246022901DA012A6B
:1015200001DB00207047024881540120FAE70000E7
:101530007C0200207047000010B5134806F00CFE36
:10154000124908600846006811490968401A40F6C7
:10155000B83188420FD20D4800680D4908600D4827
:101560000078401CC0B20B49087003280ADB002039
:101570000870012010BD054800680549086000207A
:10158000044908700020F5E700000020380400201E
:101590003C0400203404002070B505460C46164675
:1015A0000CB9002070BD032106488176617820784F
:1015B00041EA00210348C1610021034801F0E4FD34
:1015C0000120EFE7083E00207804002038B50446EB
:1015D0003D4A08214FF4FA6006F062FD3B48007E68
:1015E000012800D038BD6A4639A13C4805F0A6FB69
:1015F000BDF8000000B1F5E74FF48071384802F003
:1016000030FD314A0821642006F04AFD4FF40061A4
:10161000334802F024FD4FF48051314802F01FFDA1
:10162000294A0821FA2006F03BFD0AF0FDFC4AE0B9
:10163000FFF764FD10B901F03FF93EE00020FFF72D
:1016400045FD012839D1262226A13048FEF7F9FDB3
:101650002E4804F055F8C8B100202D49087001202B
:10166000FFF768FF0020FFF74FFF0AF08DFF164AD3
:1016700008214FF47A7006F013FD134A08214FF445
:10168000FA6006F00DFD03F053FD16E020480078E7
:10169000401CC0B21E49087003280EDD00200870EF
:1016A000FFF748FF0020FFF72FFF0AF06DFF064A03
:1016B00008214FF47A7006F0F3FC034A08214FF436
:1016C0007A7006F0EDFCB3E700000020E87500201A
:1016D00073656E646D7574657800000010500020AD
:1016E0000008014068747470733A2F2F696D672E7B
:1016F0003636696675656C2E636F6D2F757067720F
:101700006164652F4A4D2E62696E00003C500020D6
:10171000EC02002070B588B006460025182101A80B
:10172000FEF7A8FD9B4A08214FF4FA6006F0B8FCCA
:101730000BF07EFD07AB142297A19A4805F024FD1B
:10174000BDF81C0028B194A197A00EF0F9F908B0DB
:1017500070BD9A48007E012800D0F8E700240DE013
:101760008C4806F0F9FC964941F82400084650F8E8
:101770002400944941F82400601CC4B2924890F8B7
:101780006600A042ECDC04E1002407E0814806F09A
:10179000E3FC8B4941F82400601CC4B28A4890F8ED
:1017A0006600A042F2DC884890F8660000B900BFED
:1017B0004FF47A704FF41673844A01A90090794867
:1017C00010F03EFB002825D101980A287ED17E48E2
:1017D00090F86600012823D10020FFF777FC01284C
:1017E00019D1FFF78BFC012804D1784805990AF03C
:1017F0009DFC09E0059881B274480CF0F7FC18B123
:101800006F4800686F4908604FF416716F48FEF723
:1018100031FD00BF5AE06D4805990AF087FC55E09C
:101820006A4805990AF082FC00244AE004EB04109F
:1018300000EBC000664901EB800090F862020128CD
:101840003DD1002004EB041101EBC101604A02EB21
:10185000810181F86202D4B904EB041202EBC202E6
:101860005B4B03EB8202B2F8601204EB041202EB52
:10187000C20203EB820202F108000CF0B7FCD0B107
:101880004F4850F824004F4941F8240013E004EB7E
:10189000041000EBC0004E4901EB8000007A68287C
:1018A00009D101210846FFF7EDFD454850F8240015
:1018B000444941F824000020464941F82400601CB6
:1018C000C4B2414890F86600A042AFDC00245BE05F
:1018D0002046FFF7FBFB01284ED13B4890F86600FD
:1018E000012819DD3B4850F82400401C394941F8D3
:1018F00024000D2810D3002041F8240034B900231F
:101900001A4619461E2010F0DBFB05E000231A469C
:1019100001211F2010F0D4FB294850F82400294948
:1019200051F8241088420DD3254850F82400254949
:1019300051F82410401A2849884201D3012010E0B0
:1019400000200EE01E4850F824001E4951F82410D3
:10195000C1F1FF3108442049884201D3012000E051
:10196000002078B1164850F82400164941F82400A8
:101970002046FFF793FD05E0114850F82400114977
:1019800041F82400601CC4B20F4890F86600A042E1
:101990009EDCF9E60000002034472073656E642069
:1019A0006D7100009C5500204F5351437265617466
:1019B00065202573204661696C000000E8750020F1
:1019C00000030020F80200207E020020CC550020F9
:1019D000D4500020F0020020905F0100F0B589B0E3
:1019E0000746182102A8FEF745FC0020FFF758FB28
:1019F00005460120FFF754FB06460024B34A0821A0
:101A00004FF4FA6006F04CFBB148007E012801D08B
:101A100009B0F0BD08AB1422AEA1B14805F0B4FB8B
:101A2000BDF8200020B1ABA1AEA00EF089F8EFE721
:101A30004AE14FF47A700A23AF4A02A90090A848FD
:101A400010F0FEF900286ED1FFF758FB012800D1F5
:101A50003AE10498202867D2DFE800F010A3A3271A
:101A6000A36D545DA3787B80858EA38F90375A72C7
:101A700075598AA3A3A3A3A3A3A3919AFFF744FB39
:101A8000012811D10020FFF721FB01280CD1059876
:101A900050B90599C8B20CF0DDFB984890F8660083
:101AA000012801DD0CF074FB7CE0FFF72DFB012821
:101AB0000AD10020FFF70AFB012805D1059818B9C3
:101AC0000599C8B20CF0CDFB6CE0059890B905996A
:101AD000C8B201210CF022F80599C8B20121FFF724
:101AE000FFFC0599C8B20CF089FB0599C8B200212A
:101AF0000CF0C1FB814890F86600012801DD0CF074
:101B00004DF84FE00599C8B20CF089FB4AE049E076
:101B10000DF0E4FA46E0059838B901222946002084
:101B200009F0CAF806E03EE03BE0012231461046EB
:101B300009F0C2F836E00599C8B20CF07AFB31E042
:101B40000CF075FB2EE00CF077FB2BE00CF07DFB2E
:101B500028E00599C8B20CF05FFB23E00599C8B2F4
:101B60000CF057FB1EE00599C8B20CF081FB19E0A0
:101B700005980CF063FB15E014E013E012E05F48F9
:101B800090F86600012802DD00200AF011FD09E04E
:101B90005A4890F86600012802DD01200AF008FD8D
:101BA00000E000BF00BFFFF7A9FA012800D18BE0D9
:101BB000002410E0FFF7A8FA01280AD12046FFF719
:101BC00085FA012805D114B90CF02CFB01E00CF0CA
:101BD00001FA601CC4B2494890F86600A042E9DCF2
:101BE000464890F86600012827DD454800684549C9
:101BF000096888420CD34248006842490968401A83
:101C000042F21071884201D301200FE000200DE064
:101C10003C480068C0F1FF3039490968084442F285
:101C20001071884201D3012000E0002028B134481F
:101C30000068344908600AF0FBFC002441E02046BB
:101C4000FFF74EFA01281AD1FFF75EFA01282AD1D0
:101C50002046FFF73BFA012825D12046FFF710FA6E
:101C6000012820D12CB900222946204609F024F869
:101C700019E000223146204609F01EF813E013480F
:101C800006F06AFAC4EBC4011F4A02EB8101486006
:101C9000C4EBC400114601EB80004068C4EBC401F2
:101CA00002EB81018860FFF72FFA012807D1204657
:101CB000FFF70CFA012802D12046FFF7E1F9601C7A
:101CC000C4B2012CBBDB00BFB3E600000000002063
:101CD000E875002034472073656E64206D71000044
:101CE0007C5A00204F5351437265617465202573FF
:101CF000204661696C000000AC5A00207E02002082
:101D0000080300200C030020F44F002088B00020BE
:101D10000690079000BF00BF18216846FEF7AAFA98
:101D200008F066F908F036FB412008F07BF9674AB5
:101D300008214FF47A7006F0B3F9C6E0FFF7DEF938
:101D4000012806D1614A08214FF47A7006F0A8F9FB
:101D5000BBE002F091F904465C4A08214FF47A7026
:101D600006F09EF910F000FD5948007A01284CD188
:101D70005848844202D05848844246D15748007E91
:101D800001282CD10EF0DCF900283ED054485549EA
:101D90000A6802604A684260098901810020FFF7F1
:101DA0006FF9012806D100231A4619460B2010F0BE
:101DB00087F900E000BF40214B4802F052F9434A46
:101DC0000821642006F06CF94021474802F047F9E9
:101DD0003E4A082140F6B83006F062F915E010F0EE
:101DE00071FD90B14021404802F03BF9374A08218B
:101DF000642006F055F940213B4802F030F9334A9F
:101E0000082140F6B83006F04BF93148007A022834
:101E10005AD13248007E01282FD100200CF0DCF985
:101E2000012851D10EF08CF900284DD00A222D49FD
:101E30002B48FEF743FA30B900230422194602204A
:101E400010F0D8FB05E000231A46284918460FF089
:101E5000ABFF4021244802F004F91C4A0821642009
:101E600006F01EF94021204802F0F9F8174A08212F
:101E700040F6B83006F014F926E01D48D0F86202AA
:101E80006421B0FBF1F5284610F034FFE0B11048B2
:101E9000007898B94021144802F0E3F80B4A082171
:101EA000642006F0FDF840210F4802F0D8F8074AF8
:101EB000082140F6B83006F0F3F805E000231A4692
:101EC0000C4918460FF070FF00BF37E700000020F4
:101ED0005462002078040020B8050020E875002036
:101EE0004962002060620020001C014018050020AB
:101EF000083E00202C05002008B50EF0A1FF6A4620
:101F00000821642006F0CCF80FF084F80EF08EF86B
:101F10001FE0FFF7F3F8012806D10E4A08214FF41D
:101F20007A7006F0BDF814E00FF072FD0EF0F4FFC9
:101F30000EF0ACFA0EF07AFF07480EF06DFE00F0DE
:101F400087FC02F0CFF8034A0821012006F0A8F828
:101F500000BFDEE700000020083E002000B58BB087
:101F60000AA8032100220592CDE906210890142039
:101F7000FA211922424BCDE90132CDE903101E208E
:101F80000023404A40A10090424805F095FC0AA871
:101F9000032100220592CDE9062108901420962104
:101FA0000F223D4BCDE90132CDE90310062000237D
:101FB0003A4A3BA100903D4805F07EFC0AA8032167
:101FC00000220592CDE90621089014204FF4AF714C
:101FD0002322374BCDE90132CDE90310072000233E
:101FE000344A35A10090374805F066FC0AA8032161
:101FF00000220592CDE90621089014204FF4967135
:102000001E22314BCDE90132CDE903100820002317
:102010002E4A2FA10090314805F04EFC0AA803215A
:1020200000220592CDE9062108901420FA211922F8
:102030002B4BCDE90132CDE9031003200023294ABF
:1020400029A100902B4805F037FC0AA803210022A3
:102050000592CDE90621089014204FF496711E22B6
:10206000254BCDE90132CDE903100A200023234A94
:1020700023A10090254805F01FFC0BB000BD000017
:102080004C0A00200D1D00084170702043617264ED
:102090000000000094090020EC0E0020F91E00084A
:1020A000417070204368617267650000340E002043
:1020B000FC11002011210008417070204477696EE6
:1020C00000000000441100202C180020CD1500084D
:1020D0004170702034474D61696E00007417002014
:1020E000941D002015170008417070203447526578
:1020F00063760000DC1C002034220020DD1900087B
:1021000041707020344753656E6400007C210020CC
:1021100030B589B005460024182103A8FEF7AAF8B7
:102120009C4A08214FF47A7005F0BAFF0BF0F0F8E2
:102130000021994801F028F80FF0AAFA08F02EFEC5
:102140009648007E012801D108F028FE01AB142238
:1021500093A1974805F018F8BDF8040028B190A1A4
:1021600094A00DF0EDFC09B030BD12E1FEF7C6FF02
:10217000012806D1874A08214FF47A7005F090FFB4
:1021800007E14FF4FA7032238F4A03A90090884880
:102190000FF056FE00287DD10398012842D0042874
:1021A00007D0062877D10798C1B28748FEF780FE8E
:1021B000D1E004B9CFE085490698884213D084491C
:1021C000069888420FD08349069888420BD08249EE
:1021D0000698884207D081490698884203D08049F2
:1021E0000698884216D1794884421AD078488442A9
:1021F00017D07848844214D07748844211D0774869
:1022000084420ED00220774988702146069800F05B
:10221000BBFF06E00020734988702146069800F055
:10222000B3FF98E0059820B1012811D002287DD194
:1022300051E05A48007E012809D1012100200BF00D
:102240006DFC00231A46194618460FF039FF7FE04F
:10225000654866490A6802638A888286897980F8B7
:1022600036100F38D0F84610C0F84A100698C1B2A0
:102270005D480F3880F866124848007E012815D165
:102280000AF042FD5A490B6857490F3991F8660226
:102290000F2201E060E05DE00021FEF7B7FC0023C3
:1022A0001A46194618460FF00BFF13E04A48A042A1
:1022B00006D002204B4988702146464800F064FF52
:1022C0004B490B6848490F3991F866020F220121EA
:1022D000FEF79CFC3CE0444844490A6802638A8853
:1022E0008286897980F8361000200EF035FE3E494E
:1022F0000F39C1F84A000698C1B23B480F3880F840
:1023000066122648007E012814D10AF0FDFC002345
:102310001A46194611200FF0D3FE35490B68324991
:102320000F3991F866020F22002100E00FE0FEF75E
:102330006DFC09E02E490B682B490F3991F86602B4
:102340000F220121FEF762FC10F0DAF900E000BF75
:1023500000BF00E000BF00BF01F08EFE04461CB1CC
:10236000E06808B1E06880471E480088012804D171
:102370000220029002A800F001FC1B490F390878E6
:102380000FF062FF0EF004FF0FF01AF80FF02EFFAF
:1023900000BFEBE600000020A4050020E875002047
:1023A0006477696E207461736B206D7100000000AA
:1023B000107A00204F535143726561746520257374
:1023C000204661696C000000A47A0020040500200A
:1023D000180500202C050020400500205405002091
:1023E000B805002044040020173E002020000020F3
:1023F0008872002008B5002500F0B6F94FF4E130EE
:102400000BF01CF800F0B8F900F0A6F90646A64853
:102410000068B6FBF0F7384605F0E6FE684605F0C2
:10242000C9F90AF029FC01F037FA0FF07BF89FA0F8
:102430000DF086FB90200EF00DFE02F0DBFE4FF457
:10244000FA700EF03FFE02F0BDFBFFF787FDA448D7
:102450000068A449086008460068000E096801F495
:102460007F0140EA11209F49098801F47F4140EA39
:1024700001209C49097840EA01609A49086098481F
:10248000001D00689849086008460068000E096849
:1024900001F47F0140EA11209349098801F47F414A
:1024A00040EA01209049097840EA01608E490860BD
:1024B0008B48083000688D49086008460068000EA7
:1024C000096801F47F0140EA11208849098801F474
:1024D0007F4140EA01208549097840EA016083494B
:1024E000086008460368804802687E48016880A04A
:1024F0000DF026FB84487B49096801607A49096828
:1025000041607A4909688160804876490968C0F865
:10251000111075490968C0F8151074490968C0F8A8
:10252000191000BF08E079481130405D18B9AA21A0
:102530007648113041556D1C0C2DF4D340F2537187
:10254000062002F00BFBADE002F028FB70480068AB
:10255000401C6F4908606A460821642005F0A0FD10
:1025600001F0C6F86B4880786B4908716948C078FB
:10257000643088716748407848716848007888708E
:102580006648407848706548807808706448D0F89C
:10259000A0006349D1F8A41001446148D0F8A0001C
:1025A00064225043B0FBF1F45E480068A04201DAB7
:1025B0005C4804605C48D0F8A0005B49D1F8A410E6
:1025C00001445948D0F8A00064225043B0FBF1F414
:1025D00056480068A04201DA544804605448D0F8D4
:1025E000A0005349D1F8A41001445148D0F8A000EC
:1025F00064225043B0FBF1F44E480068A04201DA77
:102600004C4804604C48D0F8A0004B49D1F8A410C5
:1026100001444948D0F8A00064225043B0FBF1F4D3
:1026200046480068A04201DA444804604448D0F8B3
:10263000A0004349D1F8A41001444148D0F8A000BB
:1026400064225043B0FBF1F43E480068A04201DA36
:102650003C4804603C48D0F8A0003B49D1F8A410A5
:1026600001443948D0F8A00064225043B0FBF1F493
:1026700036480068A04201DA344804603448D0F893
:10268000A0003349D1F8A41001443148D0F8A0008B
:1026900064225043B0FBF1F42E480068A04201DAF6
:1026A0002C48046050E70000AC4C0108757361725F
:1026B0007420496E69742E2E2E2E2E2E2E2E2E2E26
:1026C0002E2E2E2E2E2E2E2E2E2E2E2E2E2E2E2E2A
:1026D0002E2E2E2E2E2E2E2E2E2E2E2E0D0A0000BB
:1026E000E8F7FF1F300000203400002038000020F1
:1026F0004D43552049643A253038782025303878C4
:1027000020253038780A0000E426002010620020DE
:102710004007002038020020200000203402002062
:102720004C0700200400002094090020080000202D
:10273000340E00200C000020441100201000002066
:102740007417002014000020DC1C0020180000205A
:102750007C2100201C00002000B585B0684608F0F0
:102760009BF8009805B000BD10B54FF4407004F020
:1027700085F910BD00BFFEE710B500F01FF800F0AE
:1027800019F810BD10B5002400BF00BFFDF712FD01
:10279000044600BF00BF1021054802F0F9FD00BF4C
:1027A00000BF2046FDF70AFD00BF00BF10BD0000BE
:1027B000283A002010B5FFF7E5FF10BD10B5002046
:1027C0000249086000F00AF810BD00006C0100200A
:1027D00001490860704700006C01002010B5FFF748
:1027E000BBFF04460848006840F080700649086056
:1027F0000020064948600846006840F00100086073
:102800002046FFF7E5FF10BDFCED00E0001000E002
:102810000149486870470000001000E010B502212F
:10282000002008F015FE074908600221012008F089
:102830000FFE054908600221132008F009FE034934
:10284000086010BDD0010020D4010020D801002074
:1028500010B50E480078012815D10D480DF060FF25
:10286000012810D10B4A0821C82005F019FC0220CC
:10287000064908720020087007488078022802D1B3
:10288000002005498870012010BD0000546200201E
:10289000083E0020000000204404002010B5002065
:1028A0000449086004230A46002105200EF0C8FEF2
:1028B000012010BD8872002010B5FEF725FC01280C
:1028C00001D003F0CFF8FEF71FFC01280CD02D48F3
:1028D0000068401C2B490860032803D900200860C9
:1028E00009F0A2FB002010BD002423E02046FEF7E3
:1028F000EDFB01280FD044B92348B0F8542000F173
:102900005601204602F078FD05E042F248621FA120
:10291000204602F071FD2046FEF7D8FB012807D0C3
:1029200018480068401C17490860204609F070FBF1
:10293000601CC4B2144890F86600A042D6DC0024A3
:1029400007E02046FEF7C2FB012800D106E0601C2C
:10295000C4B20D4890F86600A042F2DC00BF00202F
:10296000FEF7B4FB01280AD006480068032806D900
:1029700000200449086009F057FB0020B3E701205C
:10298000B1E70000E80200207E0200203131342E41
:1029900035352E3138362E32303600000146632967
:1029A00001DD002070470A2091FBF0F300FB1310BB
:1029B0000A2391FBF3F300EB0310C2B21046F1E7D8
:1029C00021B1026842F00102026004E002684FF6A1
:1029D000FE731A400260704700210160416081600F
:1029E000C160016141618161C161016241628162D5
:1029F000704710B50022026847F6F0739A430C6ADC
:102A00008B6823430C6923434C6923438C6923431C
:102A1000CC6923434C6A23438C6A23431A430260E4
:102A2000CB6843600B6883604B68C36010BD0000D7
:102A300001684FF6FE7211400160002101604160A3
:102A40008160C1604B49884208D14A4908394968C8
:102A500041F00F01474A083A51608AE04549143174
:102A6000884208D143490839496841F0F001414A98
:102A7000083A51607DE03F492831884208D13D49FC
:102A80000839496841F470613A4A083A516070E087
:102A900038493C31884208D136490839496841F4FF
:102AA0007041344A083A516063E0324950318842FB
:102AB00008D130490839496841F470212D4A083A53
:102AC000516056E02B496431884208D129490839C0
:102AD000496841F47001274A083A516049E02549A4
:102AE0007831884208D123490839496841F070613A
:102AF000204A083A51603CE01F49884206D1011F34
:102B0000096841F00F01021F116032E01A491431C7
:102B1000884208D11849091F096841F0F001164A96
:102B2000121F116025E014492831884208D112494A
:102B3000091F096841F470610F4A121F116018E003
:102B40000D493C31884208D10B49091F096841F4FD
:102B50007041094A121F11600BE007495031884249
:102B600007D10549091F096841F47021024A121F63
:102B700011607047080002400804024070B5054625
:102B800001F07AFA04460CB9A06810B12846A16891
:102B9000884770BD2DE9F04105460E4617460DB138
:102BA00006B117B90020BDE8F081002414E00C48FC
:102BB00030F83400A8420DD1094800EBC400406849
:102BC00040B1074800EBC4003A4631464368284606
:102BD0009847E8E7601CC4B20C2CE8D30120E2E778
:102BE000305101087047002107E0002201E0531C2A
:102BF0009AB26E2AFBDB4B1C99B28142F5DB70471F
:102C000037B5A4B0044601F037FA054615B90020DF
:102C100027B030BD782106A8FDF72CFB9DF8940065
:102C20009DF895109DF896209DF89830CDE90132D9
:102C3000CDE903109DF8990000909DF89A0000F2EC
:102C40006C7308A2782106A80CF08AFF217941F262
:102C5000050242EAC1101E2206A907F0F7F801207A
:102C6000D6E70000253034642D2D253032642D2D1B
:102C7000253032642D2D253032643A3A25303264C5
:102C80003A3A2530326400002DE9F04106460D46FF
:102C9000002401F0F1F90746112D00DA17B90020E0
:102CA000BDE8F081002417E004EB44000D4911F861
:102CB0002000A8420ED104EB44000B4603EB800039
:102CC000028904EB440003EB800041683046FDF7C5
:102CD000B8FA03E0601CC4B2112CE5DB00BF012090
:102CE000DEE70000744F01082DE9F04106460D466D
:102CF000002401F0C1F90746112D00DA17B90020B0
:102D0000BDE8F081002417E004EB44000D4911F800
:102D10002000A8420ED104EB44000B4603EB8000D8
:102D2000027A04EB440003EB80004168304607F070
:102D30008DF803E0601CC4B2112CE5DB00BF01205C
:102D4000DEE70000744F010837B5A4B0044601F077
:102D500093F9054615B9002027B030BD782106A8A3
:102D6000FDF788FA9DF894009DF895109DF896203F
:102D70009DF89830CDE90132CDE903109DF8990016
:102D800000909DF89A0000F26C730BA2782106A8BF
:102D90000CF0E6FE1E2206A9204607F057F84FF673
:102DA000C07204EA0201303188B24FF6FF7109F0B7
:102DB00065FE0120D0E70000253034642D25303237
:102DC000642D2530326420253032643A2530326457
:102DD0003A253032640000002DE9F04106460D46E8
:102DE000002401F049F90746142D00DA17B9002034
:102DF000BDE8F081002417E004EB44000D4911F810
:102E00002000A8420ED104EB44000B4603EB8000E7
:102E1000028904EB440003EB800041683046FDF773
:102E200010FA03E0601CC4B2142CE5DB00BF0120E3
:102E3000DEE700004050010810B55748007E012829
:102E400037D10020FEF71CF990B1002053490870DB
:102E5000084600785249097888421BD04F480078CC
:102E60004F490870012142F2600006F0B3FF11E003
:102E700001204A4908700846007849490978884283
:102E800008D04648007846490870002142F26000A8
:102E900006F0A0FFFEF714F960B942480078012857
:102EA00008D1002142F2500006F094FF00203D4975
:102EB00008706FE0FEF704F918B1FEF701F9632816
:102EC00012D1002035494870084640783449497885
:102ED00088425FD03148407831494870002142F241
:102EE000500006F077FF55E0FEF7EAF8012811D10F
:102EF0002A4948700846407829494978884249D08B
:102F00002648407826494870012142F2500006F0D8
:102F100061FF3FE0FEF7D4F8142812DA02201F49BF
:102F20004870084640781E494978884232D01B488C
:102F300040781B494870022142F2500006F04AFFD7
:102F400028E0FEF7BDF8192812DA0320134948706B
:102F5000084640781249497888421BD00F4840788B
:102F60000F494870032142F2500006F033FF11E090
:102F700004200A494870084640780949497888423F
:102F800008D00648407806494870042142F25000B3
:102F900006F020FF012010BDE87500205404002039
:102FA000560400205804002070B504460D467821D0
:102FB0005F48FDF75FF9207C0006218A01F47F411C
:102FC00040EA0120216901F47F0140EA11202169D2
:102FD00040EA1160564908600A2204F16C01544825
:102FE000001DFDF72EF9142204F11C0150480E308B
:102FF000FDF727F9207D0006A18A01F47F4140EA10
:103000000120616901F47F0140EA1120616940EA11
:103010001160474948620A2204F1300144482830CF
:10302000FDF70FF94249206848630846D4F862105A
:103030008163D4F86610C163B4F86A10A0F8401038
:10304000423061680160A1684160A1890181642109
:10305000A069B0FBF1F000066422A169B1FBF2F1B6
:1030600001F47F4140EA0120A169B1FBF2F101F4D2
:103070007F0140EA1120A169B1FBF2F140EA116041
:103080002B49C864142204F13A0129485030FDF755
:10309000D8F8142204F14E0125486430FDF7D1F828
:1030A000297941F2010242EAC1102222204906F0A8
:1030B000CDFE297941F2120242EAC11004221C49D4
:1030C000243106F0C3FE297941F2140242EAC1100C
:1030D0000A221749283106F0B9FE297941F219026E
:1030E00042EAC11004221249343106F0AFFE2979B8
:1030F00041F21B0242EAC1100A220D49383106F0A2
:10310000A5FE29794FF4815242EAC1100E220849E6
:10311000423106F09BFE297941F2500242EAC11089
:1031200028220349503106F091FE012070BD0000B5
:10313000FC7300201CB50848016800918188ADF837
:10314000041080798DF806004FF44050DDE900123C
:10315000FFF7FAFD00201CBD200000201CB5084828
:10316000016800918188ADF8041080798DF806001F
:103170000448DDE90012FFF743FD00201CBD0000FC
:10318000200000209005002070B504460D4604B9CB
:1031900070BD05B125600C480460208A0B49088089
:1031A00009490968087906F00FFE07480068C068F9
:1031B00040B105480068C068401C18B10249096860
:1031C000C868804700BFE3E74004002044040020B3
:1031D0002DE9F04107460E46144606B10CB9BDE88C
:1031E000F08100F01DF8E11CC8B201F0C1FF82209F
:1031F00001F0BEFF384601F0F3FF002504E0705DEA
:1032000001F0B6FF681CC5B2A542F8DBFF2001F053
:10321000AFFFFF2001F0ACFF01F0CCFF00BFDEE705
:1032200010B545F6A52001F0DBFF10BD014600BF3B
:10323000080900EB8000420001F00F001044C0B20A
:1032400070470146002204E0501CC2B2A1F10A00FE
:10325000C1B20A29F8DA100741EA1060704700008D
:1032600010B50121080707F0D3FA012006F05AFD36
:10327000012007F0EDFA002007F0EAFA012007F03C
:103280008DFC00BF412007F06BFC0028FAD04FF402
:10329000807007F0F9FAFF200D4908607F200D4982
:1032A0000860012007F0EAFA00F054FA09480068C3
:1032B00009494860064800688860002008600846A0
:1032C00000F0E4F810B905A00CF03AFC10BD0000C5
:1032D0004802002044020020FC3D00204552544397
:1032E000205072657363616C657220436F6E66690E
:1032F00067206661696C656421210D0A0000000089
:1033000008B50022009200200021104A126802F045
:103310004002CAB9421E0D4B1A6000BF0B4A126828
:1033200002F04001009A521C0092009AB2F5803FD0
:1033300001D00029F2D0054A126802F040020AB119
:10334000012002E0002000E0012008BD0C28004020
:103350000348006820F080000149086070470000C1
:103360000C28004038B505460C4600200090134854
:10337000006800901148001F006811490840009043
:103380000098000CE0700098C0F304206070009872
:1033900000F03F00A0700098C0F3423020705DB98B
:1033A000E078FFF743FFE0706078FFF73FFF607061
:1033B000A078FFF73BFFA07038BD00000828004050
:1033C0003FFFFF0038B505460C460020009014482A
:1033D00000680090124808380068124908400090C0
:1033E0000098C0F3054020700098C0F3062060707C
:1033F000009800F07F00A070009800F48000000C9E
:10340000E0705DB92078FFF711FF20706078FFF75A
:103410000DFF6070A078FFF709FFA07038BD0000B5
:10342000082800407F7F7F00CA22174B1A60532272
:103430001A6091B1144A1C3A126820F004031A432E
:10344000114B1C3B1A60104A1C32126800F0040336
:103450001A430D4B1C331A6011E00B4A1C3A1268D8
:1034600020F004039A43084B1C3B1A60064A1C32A6
:10347000126800F004039A43034B1C331A60FF22C6
:10348000014B1A60704700002428004030B5044604
:103490000025CA201549086053200860FFF730FF57
:1034A00000B91DE011481C38006820F040000F49A9
:1034B0001C39086008460068216808430B491C391C
:1034C00008600A491439A068086008460068A188A5
:1034D00040EA0140054914390860FFF739FF01252A
:1034E000FF2002490860284630BD00002428004023
:1034F00008B501460020009004480090009800EBB9
:10350000810000900098006808BD0000502800402D
:103510002DE9F04105460C46002600274DB960789C
:1035200000F01000102804D1607820F010000A305C
:10353000607005B908E06078FFF778FE0646A0786D
:10354000FFF774FE064600BF55B1E07800046178CD
:1035500040EA0120A1780843217840EA413611E091
:10356000E078FFF76EFE4FEA00486078FFF769FEEB
:1035700048EA0028A078FFF764FE48EA00082078AF
:1035800048EA4036CA201249086053200860FFF715
:10359000B7FE08B9002714E00E4830400C49203926
:1035A0000860FFF7D5FE0A481C38006800F02000CC
:1035B00030B900F0CFF808B9002702E0012700E099
:1035C0000127FF20024908603846BDE8F08100006D
:1035D000242800403FFFFF002DE9F04105460C463E
:1035E000002600274DB92E48006800F0400000B1C9
:1035F00002E00020E07000BF0DE02948006800F004
:10360000400020B12078FFF711FE064602E00020BE
:10361000E07000BF00BF55B120780004617840EA37
:103620000120A1780843E17840EA014611E02078C2
:10363000FFF707FE4FEA00486078FFF702FE48EA0E
:103640000028A078FFF7FDFD48EA0008E07848EA86
:103650000046CA2012491C31086053200860FFF759
:103660004FFE08B9002713E00E4830400C490839D6
:103670000860FFF76DFE0A48006800F0200030B9CE
:1036800000F068F808B9002702E0012700E00127F0
:10369000FF2003491C3108603846BDE8F081000076
:1036A000082800407F7F7F0010B500200E49C870B9
:1036B0000820087010204870002088700120FFF753
:1036C0008BFF052009490870092088700720487081
:1036D0002220C8700120FFF71BFF43F2F2210020D7
:1036E00000F068F810BD000034020020380200200D
:1036F00010B504490020FFF735FE03490020FFF70D
:1037000061FE10BD38020020340200200EB50220F8
:103710008DF8080001208DF80B008DF809000020BD
:103720008DF80A0002A803F071F94FF40010009020
:1037300001208DF8060000208DF8040008208DF887
:103740000500684600F044F80121C803FFF76CFE4D
:103750000EBD000008B50022009200200021CA2200
:10376000134B1A6053221A60114A183A126822F059
:10377000A0020F4B183B1A6000BF0D4A183A12689E
:1037800002F02001009A521C0092009AB2F5003F0C
:1037900001D00029F1D0064A183A126802F020023E
:1037A0000AB1012000E00020FF22014B1A6008BD91
:1037B0002428004008B500220092044A0092009A92
:1037C00002EB80020092009A116008BD5028004070
:1037D000002123498279002A3AD00A4612680368F8
:1037E0009A430B461A600A1D126803689A430B1D20
:1037F0001A60027911440A6803681A430A60184A79
:103800000832126803689A43154B08331A601A1D70
:10381000126803689A43124B0C331A604279102ADB
:103820000ED11A1F126803681A430D4B08331A6031
:103830001A1D126803681A43094B0C331A600DE015
:103840000749427911440A6803681A430A6005E08F
:10385000027911440A6803689A430A6070470000BD
:103860000004014070B505460C4616460CB9002010
:1038700070BD0121064881766178207841EA0021F7
:103880000348C16100210348FFF77EFC0120EFE7F8
:10389000083E00207804002008B500200090102188
:1038A0004E4800F0DEFB08F0C5FD08F0B3FD002037
:1038B000009008F0CFFD08F0D9FC012802D108F0F3
:1038C00023FD0090009820F0FF00454988420DD06C
:1038D00044490098884209D00520FFF784F908F090
:1038E000C5FC012802D108F00FFD009000203E49E0
:1038F00008603C49491E0098884204D14FF47E205C
:10390000394908605EE039490098884207D14FF490
:10391000FC203549086001203549087052E03349E0
:10392000491C0098884206D0009820F470402D4928
:10393000491E884207D14FF47E202B4908600120A0
:103940002B4908703EE029494C390098884207D13C
:103950004FF4FF102449086001202549087031E028
:10396000224943390098884206D122481E490860FE
:1039700001201F49087025E0009820F0FF00184939
:10398000884205D0009820F470401649884204D13E
:103990004FF4FF101449086014E0009820F0FF0075
:1039A0001549884206D0009820F470400D49491C02
:1039B000884203D10F480C49086003E04FF4FF1020
:1039C000094908600D490098884202D10948064912
:1039D0000860002008F03EFD08BD0000000801401E
:1039E00000461F001530EF002C0400208D25BF007D
:1039F0003004002000E03F0000471F0017405E0039
:103A00002DE9F047CCB00646894692469846549C2C
:103A10004FF4967101A8FCF72DFCB8F1000F02D00D
:103A20000CB1FA2C03DD00204CB0BDE8F08706B9DC
:103A3000012668208DF8040003208DF805008DF81C
:103A400006908DF807A0F0B28DF80900300A8DF8C5
:103A5000080010208DF80A0010252A4625490DF18E
:103A60000B00FCF7EEFB05F1080001AA1454210A33
:103A7000E81D115405F10901881822464146FCF75A
:103A8000E0FB05F10900011901A80DF0B4FF05F1F3
:103A90000901214401AA5054482105F10A0020449B
:103AA0001154701C86B205F10B00204482B201A9AA
:103AB000002001F02BFD05F10B0001190EA00CF008
:103AC0003FF8002706E001A8C15D10A00CF038F80F
:103AD000781C87B205F10B002044B842F3DC0DA03E
:103AE0000CF02EF80C4A08214FF4FA7004F0D8FAC2
:103AF000012099E7E87500207478206C656E3A25FE
:103B0000642C747820646174613A00002530327846
:103B1000200000000D0A00000000002008B56846E3
:103B200000F0A1FA0120ADF8000000208DF803009C
:103B30006946024800F004F808BD00000008014092
:103B40002DE9F04102460025002600200023002434
:103B5000002791F803C00CF00F0591F803C00CF09A
:103B6000100CBCF1000F03D091F802C04CEA05051F
:103B700091F800C0BCF1000F31D0146800202BE098
:103B80004FF0010C0CFA00F3B1F800C00CEA030688
:103B90009E4220D183004FF00F0C0CFA03F7BC4378
:103BA00005FA03FC4CEA040491F803C0BCF1280FA9
:103BB00006D14FF0010C0CFA00FCC2F814C00AE068
:103BC00091F803C0BCF1480F05D14FF0010C0CFA7D
:103BD00000FCC2F810C0401C0828D1D31460B1F812
:103BE00000C0BCF1FF0F34DD546800202EE000F16E
:103BF000080C4FF0010808FA0CF3B1F800C00CEA09
:103C000003069E4221D183004FF00F0C0CFA03F7FC
:103C1000BC4305FA03FC4CEA040491F803C0BCF170
:103C2000280F05D100F1080C08FA0CF8C2F814802E
:103C300091F803C0BCF1480F07D100F1080C4FF018
:103C4000010808FA0CF8C2F81080401C0828CED3EE
:103C50005460BDE8F0810000F0B50446B4F1004FB7
:103C600072D90023002224F00045EB0905F07F05FE
:103C70002A0905F00F05052B03D0970005FA07F672
:103C800003E05708BF0005FA07F6062B15D2DFE858
:103C900003F00305080B0E11EA480FE0E948001D88
:103CA0000CE0E848083009E0E6480C3006E0E5485A
:103CB000103003E0E348143000E000BF00BF5AB901
:103CC000052B04D1076827F0030707604AE007685F
:103CD00027F00F07076045E0012A0BD1052B04D11F
:103CE000076827F00C0707603CE0076827F0F0073B
:103CF000076037E0022A0BD1052B04D1076827F0B3
:103D0000300707602EE0076827F47067076029E036
:103D1000032A0BD1052B04D1076827F0C0070760E1
:103D200020E0076827F4704707601BE0042A04D1ED
:103D3000076827F47027076014E0052A05D1076893
:103D400027F4700707600DE012E0062A04D1076827
:103D500027F07067076005E0072A03D1076827F09E
:103D600070470760012902D107683743076067E1A0
:103D7000B4F5406F77D020DC402C75D00CDC042CDF
:103D80003FD004DC012C4ED0022C6ED138E0102C38
:103D900059D0202CF9D169E0B4F5007F76D005DC4C
:103DA000802C77D0B4F5807FEFD197E0B4F5407FD9
:103DB0006ED0B4F5006FE8D1C0E0B4F1807F68D078
:103DC00011DCB4F5803F1ED006DCB4F5804F71D015
:103DD000B4F5004FD9D115E0B4F5003F14D0B4F5D7
:103DE000802FD2D111E0B4F1007F74D0B4F1806F94
:103DF00072D0B4F1884F70D0B4F1904FC5D10DE1BD
:103E000000BF00BF00BF00BF00BF8E482038406821
:103E1000A0438C4A203A5060012903D110464068E3
:103E2000204350600BE1874820384068864A1040A4
:103E3000844A203A5060012904D11046406840F07D
:103E400001005060FBE07F482038406820F03000DF
:103E50007C4A203A5060012904D11046406840F065
:103E600010005060EBE079E025E0E7E0754820388D
:103E7000406820F03000734A203A5060012904D194
:103E80001046406840F020005060D8E036E001E085
:103E900044E083E06B482038406820F0C000694A65
:103EA000203A5060012904D11046406840F080005B
:103EB0005060C4E062E063482038406820F0C000F1
:103EC000604A203A5060012904D11046406840F011
:103ED00040005060B3E071E080E08FE05948203846
:103EE000406820F44070574A203A5060012904D1BC
:103EF0001046406840F480705060A0E0514820387F
:103F0000406820F440704F4A203A5060012904D1A3
:103F10001046406840F40070506090E049482038F6
:103F2000406820F44070474A203A5060012904D18B
:103F30001046406840F44070506080E041482038AE
:103F4000406820F440603F4A203A5060012904D183
:103F50001046406840F40060506070E039482038F6
:103F6000406820F44060374A203A5060012904D16B
:103F70001046406840F44060506060E031482038AE
:103F8000406820F4C0402F4A203A5060012904D1F3
:103F90001046406840F48040506050E02948203886
:103FA000406820F0E060274A203A5060012904D19F
:103FB0001046406840F08070506040E02148203852
:103FC000406820F0E0601F4A203A5060012904D187
:103FD0001046406840F00070506030E019482038CA
:103FE000406820F0E060174A203A5060012904D16F
:103FF0001046406840F08060506020E01148203852
:10400000C06920F040600F4A203AD061012904D1F4
:104010001046C06940F08060D06110E00948203847
:10402000C06920F04060074A203AD061012904D1DC
:104030001046C06940F00060D06100E000BF00BFE2
:10404000F0BD000020000140FEFFFF7F024600207F
:1040500093680B400BB1012000E0002070474161E4
:104060007047016170474FF6FF7101800221817036
:104070000421C170704700000148006870470000CB
:104080004004002010B5104910480068FCF7ADF955
:104090000446FCF791FA0E4908610E490E48006883
:1040A000FCF7A3F90446FCF787FA094988810B4914
:1040B0000B480068FCF799F90446FCF77DFA81B2D9
:1040C0000348C18110BD000000007A4404020020B2
:1040D000083E00200000C842FC01002000002041F2
:1040E000F801002010B5114804F036F810490860B6
:1040F00010488089B0F5167F12DD0E48406B78B904
:10410000084600680C490968401A47F23051884255
:104110000AD900F057FD084800680549086003E027
:10412000034800680449086010BD0000000000203A
:1041300070020020083E00207402002010B5FEF737
:104140006DFB07F075F807F0DBF907F029F806F0CA
:1041500001FF07F005F806F075FE07F097F907F084
:104160003DF907F0F5F807F0ABF806F077FF10BD62
:1041700070B50024002517E06006040E01200C49EC
:1041800008600A200CF0D8FF00200A49C1F8A001FD
:104190000A200CF0D1FF064888380068012801D1B8
:1041A00044F00104681CC5B2082DE5DB204670BD53
:1041B000A08121420080214210B50446204600F033
:1041C00001F810BD70B505462E4600241AE0802087
:1041D0002041304018B101200C49086002E0002065
:1041E0000A49086001200949091D08600A200CF0ED
:1041F000A3FF00200649C1F8A0010A200CF09CFF93
:10420000601CC4B2082CE2DB70BD00009C8121421E
:104210000080214270B5044644F080052846FFF72F
:10422000D1FF70BD10B5002006490860EA20FFF7F5
:10423000C9FFDC20FFF7C6FF01200349C1F8A40134
:1042400010BD0000A48121420080214210B5002051
:1042500006490860EA20FFF7B5FFE520FFF7B2FF47
:1042600001200349C1F8A40110BD0000A48121422E
:104270000080214270477047704770477047704711
:104280007047704770477047704770477047704776
:104290007047704770477047704770477047704766
:1042A0007047704770477047704770477047704756
:1042B00070477047704770477047000010B504465C
:1042C000207804281AD0052804D006281DD00728F5
:1042D0002BD122E0FDF730F978B101201449887024
:1042E00000211448FEF750FF134A0821322003F042
:1042F000D7FE962164200EF019FA17E001200C4930
:104300008870002001F06CFF10E0012008498870DF
:10431000FCF7B4FDFCF712FF08E0012004498870A7
:1043200006490748FEF730FF00E000BF00BF10BDA0
:104330004404002068050020000000208C040020B8
:10434000E406002010B504462078022808D1002099
:1043500005498870054908680021FEF715FF00E04F
:1043600000BF00BF10BD0000440400204005002035
:1043700010B504462078022808D10020054988702D
:10438000054908680021FEF7FFFE00E000BF00BFFE
:1043900010BD0000440400205405002001780129CC
:1043A00005D0032902D0042909D104E000BF00216F
:1043B000044A917004E00021024A917000E000BFBD
:1043C00000BF70474404002010B50446207804283C
:1043D0001ED006DC01280BD002280DD003282DD1D9
:1043E00011E00F2818D010281CD0112826D11FE06A
:1043F00000201449887022E0FEF7B0FE0021124828
:10440000FEF7C2FE1BE000211048FEF7BDFE16E0DD
:10441000002001F0E5FE12E001200D49087601F0D0
:10442000D3FD0CE002200A49087601F0CDFD06E03C
:1044300003200749087601F0C7FD00E000BF00BF78
:1044400010BD0000440400209005002068050020F5
:10445000E875002010B504462078132845D2DFE81F
:1044600000F0440A0E44444413161C2229303744F9
:10447000444444443E0000201D49887036E0002139
:104480001C48FEF781FE31E0FEF708FA2EE001201D
:104490001949487601F098FD28E000201649487631
:1044A00001F092FD22E044F230201349488301F0EC
:1044B0008BFD1BE044F231200F49488301F084FD5D
:1044C00014E044F230300C49488301F07DFD0DE0EA
:1044D00044F231300849488301F076FD06E00F21AF
:1044E00041F2057006F046FC00E000BF00BF10BDC1
:1044F000440400207C050020E875002010B5044627
:104500002078022805D1044908680021FEF73CFE06
:1045100000E000BF00BF10BD9005002010B50446AC
:10452000207806281AD004DC042807D0052839D1C1
:104530000CE007281AD00F2834D11FE002201B49B5
:10454000887000211A48FEF71FFE2CE00220174950
:10455000887000211748FEF717FE24E00220134957
:10456000887000211448FEF70FFE1CE002200F495E
:10457000887000211148FEF707FE14E0FCF7DCFF0D
:1045800078B101200949887000210D48FEF7FCFD33
:104590000C4A0821322003F083FD962164200EF09E
:1045A000C5F800E000BF00BF10BD000044040020BB
:1045B000CC050020E0050020F405002008060020BE
:1045C000680500200000002010B5044620780A2865
:1045D0001DD006DC022809D008280CD0092828D1D3
:1045E0000FE00B2819D00E2823D11CE0002112481F
:1045F000FEF7CAFD1EE0032141F68D0005F0FEFB2B
:1046000018E0062141F68D0005F0F8FB12E00921C3
:1046100041F68D0005F0F2FB0CE00C2141F68D0017
:1046200005F0ECFB06E0012141F68D0006F0A2FB4F
:1046300000E000BF00BF10BDB805002010B5044663
:1046400020780A281DD006DC022809D008280CD0C2
:10465000092828D10FE00B2819D00E2823D11CE0FF
:1046600000211248FEF790FD1EE0052141F60D10D5
:1046700005F0C4FB18E00A2141F60D1005F0BEFB61
:1046800012E0142141F60D1005F0B8FB0CE01E21DC
:1046900041F60D1005F0B2FB06E0012141F60D10C8
:1046A00006F068FB00E000BF00BF10BDB8050020A9
:1046B00010B5044620780A281DD006DC022809D04F
:1046C00008280CD0092828D10FE00B2819D00E2873
:1046D00023D11CE000211248FEF756FD1EE01E21EA
:1046E00041F68D1005F08AFB18E03C2141F68D1053
:1046F00005F084FB12E05A2141F68D1005F07EFB97
:104700000CE0782141F68D1005F078FB06E00121E0
:1047100041F68D1006F02EFB00E000BF00BF10BD7B
:10472000B805002010B50446207805280AD1FCF70A
:1047300003FF30B101200549887000210448FEF7CD
:1047400023FD00E000BF00BF10BD000044040020B6
:104750006805002010B5044620780A281DD006DC24
:10476000022809D008280CD0092828D10FE00B28EE
:1047700019D00E2823D11CE000211248FEF704FDB9
:104780001EE0002141F60D2005F038FB18E008215D
:1047900041F60D2005F032FB12E00D2141F60D200F
:1047A00005F02CFB0CE0152141F60D2005F026FB51
:1047B00006E0012141F60D2006F0DCFA00E000BF22
:1047C00000BF10BDB805002010B5044620780228AF
:1047D00005D1044908680021FEF7D6FC00E000BFBF
:1047E00000BF10BD9005002010B5044620780228B7
:1047F00005D1044908680021FEF7C6FC00E000BFAF
:1048000000BF10BD9005002010B504462078022896
:1048100005D1044908680021FEF7B6FC00E000BF9E
:1048200000BF10BD9005002010B504462078022876
:1048300005D1044908680021FEF7A6FC00E000BF8E
:1048400000BF10BD9005002010B504462078052853
:1048500013D1FCF771FE78B101200949887000215D
:104860000848FEF791FC084A0821322003F018FCA2
:10487000962164200DF05AFF00E000BF00BF10BD7C
:104880004404002068050020000000200178012970
:1048900003D10021024A917000E000BF00BF7047C1
:1048A0004404002010B504462078012804D00228D2
:1048B00006D004280CD107E000200749887008E0E2
:1048C000012001F08DFC04E0022001F089FC00E0F1
:1048D00000BF00BF10BD00004404002010B5044616
:1048E0002078012802D0022808D103E000200549E1
:1048F000887004E0012001F073FC00E000BF00BFFD
:1049000010BD00004404002010B50446207804289F
:1049100009D005280CD101200749887007490848AB
:10492000FEF732FC05E005490648FEF72DFC00E0E5
:1049300000BF00BF10BD000044040020B4040020EC
:1049400068050020DC04002010B504462078062805
:1049500018D2DFE800F01703070B0F1300200B49F4
:10496000887010E00120FCF7E7FC0CE00120FCF768
:1049700069FC08E00A20FCF7DFFC04E00A20FCF7F1
:1049800061FC00E000BF00BF10BD00004404002037
:1049900010B504462078012804D0022806D0032848
:1049A0000CD107E000200749887008E00120FCF7DF
:1049B000C3FC04E00A20FCF7BFFC00E000BF00BF1E
:1049C00010BD0000440400200178012902D0022912
:1049D00008D103E00021054A917004E00021034A58
:1049E000917000E000BF00BF704700004404002049
:1049F0000178012902D0022908D103E00021054AEB
:104A0000917004E00021034A917000E000BF00BFF4
:104A100070470000440400200178012902D00229D7
:104A200008D103E00021054A917004E00021034A07
:104A3000917000E000BF00BF7047000044040020F8
:104A40000178012902D0022908D103E00021054A9A
:104A5000917004E00021034A917000E000BF00BFA4
:104A600070470000440400200178012902D0022987
:104A700008D103E00021054A917004E00021034AB7
:104A8000917000E000BF00BF7047000044040020A8
:104A90007047000010B504462078022805D104496B
:104AA00008680021FEF770FB00E000BF00BF10BDEA
:104AB000DC04002010B504462078022805D1044902
:104AC00008680021FEF760FB00E000BF00BF10BDDA
:104AD000F004002010B504462078022808D10020F8
:104AE00005498870054908680021FEF74DFB00E084
:104AF00000BF00BF10BD00004404002004050020DA
:104B000010B504462078022808D100200549887095
:104B1000054908680021FEF737FB00E000BF00BF31
:104B200010BD0000440400201805002010B5044604
:104B30002078022808D100200549887005490868B6
:104B40000021FEF721FB00E000BF00BF10BD000008
:104B5000440400202C05002000BFFEE770B5054688
:104B60000C4645F2555000F013F8284600F01EF8A8
:104B7000204600F021F800F011F800F001F870BDB7
:104B80004CF6CC40014908607047000000300040FE
:104B90000149086070470000003000404AF6AA2032
:104BA000014908607047000000300040014948603A
:104BB00070470000003000400149886070470000E5
:104BC0000030004008B5C8200CF044FAC8200CF0B2
:104BD00041FAC8200CF03EFAC8200CF03BFAC8207D
:104BE0000CF038FAC8200CF035FAC8200CF032FA74
:104BF000C8200CF02FFAC8200CF02CFAC8200CF0BA
:104C000029FA64200CF05EFA0121082005F010FE5C
:104C10004FF46070ADF8000002208DF80200102003
:104C20008DF8030069465948FEF78AFF4020ADF829
:104C3000000002208DF8020004208DF80300694670
:104C40005248FEF77DFF40215048FFF70AFA0A203C
:104C50000CF038FA01204E49086002200CF06CFA82
:104C600002200CF069FA00204A49C1F8A001022094
:104C70000CF062FA0020464908390860FFF7E6FAAE
:104C800000204449C1F8A401EA20FFF79BFA5A200A
:104C9000FFF798FA01203E49086000203D49C1F81D
:104CA000A401FFF7B7FA0F20FFF78CFA0420FFF7F3
:104CB00089FA01203649086000203649C1F8A4016C
:104CC0000120FFF7A7FA1020FFF77CFA0320FFF777
:104CD00079FA01202E49086000202E49C1F8A4016C
:104CE0001320FFF797FA0F20FFF76CFAFF20FFF76A
:104CF00069FA01202649086000202649C1F8A4016C
:104D00004020FFF787FA0020FFF75CFA0020FFF74A
:104D100059FA01201E490860FFF784FA0221702029
:104D200006F096FB1C4908600221712006F090FBFA
:104D30001A4908600221722006F08AFB18490860AF
:104D40000221732006F084FB1649086002217420BA
:104D500006F07EFB144908600221752006F078FBFE
:104D6000124908600221762006F072FB10490860A3
:104D70000221772006F06CFB0E49086000F07CF8F9
:104D800007F092FE07F028FF08BD0000000C01406C
:104D9000A481214200802142A8010020AC01002012
:104DA000B0010020B4010020B8010020BC010020A7
:104DB000C0010020C401002010B5002453E02C489D
:104DC00000EB0410806800B94BE02A4803F0C4F9F6
:104DD000274901EB04110860254800EB0410006826
:104DE000234901EB04114968884212D3204800EBA3
:104DF000041000681E4901EB04114968401A1C495F
:104E000001EB04118968884201D3012015E00020DC
:104E100013E0174800EB04100068154901EB04117A
:104E20004968C1F1FF310844114901EB0411896857
:104E3000884201D3012000E0002088B10C4800EB3B
:104E4000041000680A4901EB04114860084800EBAF
:104E50000410C06820B1064901EB0411C8688047FE
:104E600000BF601CC4B2032CA9DB012010BD0000F0
:104E7000840300200000002070B50221702006F09D
:104E8000E7FA4B4908600221712006F0E1FA49492E
:104E900008600221722006F0DBFA4749086002210F
:104EA000732006F0D5FA454908600221742006F007
:104EB000CFFA434908600221752006F0C9FA41493A
:104EC00008600221762006F0C3FA3F4908600221FB
:104ED000772006F0BDFA3D49086002216F2006F0F8
:104EE000B7FA3B4908600025314800684FF6FF716A
:104EF00008443049096808442F49096808442F4983
:104F0000096808442E49096808442E49096808447C
:104F10002D49096808442D4909680844C543A8B2C9
:104F20002C4908602CA00AF00BFE214801682FA034
:104F30000AF006FE1F48016833A00AF001FE1E4871
:104F4000016838A00AF0FCFD1C4801683CA00AF08A
:104F5000F7FD1B48016841A00AF0F2FD19480168FD
:104F600045A00AF0EDFD184801684AA00AF0E8FDE6
:104F7000164801684EA00AF0E3FD1548016853A0E9
:104F80000AF0DEFD1348016857A00AF0D9FD114868
:104F900000680F490968884204D1012459A00AF029
:104FA000CFFD03E000245CA00AF0CAFD204670BDDE
:104FB000A8010020AC010020B0010020B4010020B5
:104FC000B8010020BC010020C0010020C401002065
:104FD000C8010020CC010020D7AABBBBCFB5CAFDB9
:104FE000BCC4B4E6C6F70D0A000000005531365FB8
:104FF000524D534941435F52656744617461203D9E
:105000002025780A200000005531365F524D534963
:1050100042435F52656744617461203D2025780AF0
:10502000200000005531365F524D5355435F5265A5
:105030006744617461203D2025780A20000000004B
:105040005531365F506F7765725041435F526567E7
:1050500044617461203D2025780A20005531365F77
:10506000506F7765725042435F5265674461746167
:10507000203D2025780A20005531365F506F776536
:105080007253435F52656744617461203D20257807
:105090000A2000005531365F456E657267794143DD
:1050A0005F52656744617461203D2025780A2000C5
:1050B0005531365F456E6572677942435F52656769
:1050C00044617461203D2025780A20005531365F07
:1050D000436865636B53554D5F5265674461746106
:1050E000203D2025780A20005531365F43686563EE
:1050F0006B53554D5F44617461203D2025780A2033
:1051000000000000CFB5CAFDBCC4B4E6C6F7D0A30A
:10511000D1E96F6B0D0A0000CFB5CAFDBCC4B4E67F
:10512000C6F7D0A3D1E96661696C0D0A00000000E2
:1051300010B50848406808490860084600680749F3
:1051400008600449086880F3088800BF03480068C5
:10515000804710BD009001082C000020280000208E
:105160000020024981F8C80070470000D67A00206C
:10517000094991F8C82091F8C810491C064B83F8DA
:10518000C8101946885491F8C810C82903D30021C3
:105190001A4682F8C8107047D67A002010B5044627
:1051A0004FF6FF7101EA144000F01AF8A0B200F0C7
:1051B00017F810BD10B5084890F8C81008F0FAF8B4
:1051C000FFF7CEFF054A0821142002F069FF0248CC
:1051D00090F8C80010BD0000D67A00200000002022
:1051E00010B50446200AFFF7C3FFE0B2FFF7C0FF87
:1051F00010BD000008B50121084605F019FB01218A
:10520000802005F015FB0121042005F011FB012190
:10521000102005F00DFB0121202005F009FB0121E4
:10522000082005F005FB01214806FEF715FD40208A
:10523000ADF8000002208DF8020010208DF8030068
:1052400069464D48FEF77CFC40214B48FEF707FFBE
:105250008020ADF8000002208DF8020048208DF873
:10526000030069464448FEF76BFC1020ADF80000CF
:1052700002208DF8020010208DF8030069463F4897
:10528000FEF75EFC10213D48FEF7E9FE0820ADF870
:10529000000002208DF8020010208DF803006946FE
:1052A0003748FEF74DFC08213548FEF7D8FE4FF48D
:1052B0000040ADF8000002208DF8020010208DF8AB
:1052C000030069462F48FEF73BFC4FF400412D4890
:1052D000FEF7C5FE1020ADF8000002208DF8020098
:1052E00010208DF8030069462548FEF729FC4FF48D
:1052F0000050ADF8000002208DF8020010208DF85B
:10530000030069462048FEF71BFC0220ADF80000B0
:105310008DF8020010208DF8030069461848FEF74A
:105320000FFC4FF48050ADF8000002208DF8020011
:1053300010208DF8030069461248FEF701FC4FF477
:105340000060ADF8000002208DF8020010208DF8FA
:10535000030069460B48FEF7F3FB4FF48070ADF88D
:10536000000002208DF8020010208DF8030069462D
:105370000448FEF7E5FB08BD001C01400014014095
:10538000000C0140000801400010014000BFFEE792
:1053900030B505460C4622460021284600F001F8AB
:1053A00030BD2DE9F04105460B4694460027002408
:1053B00002E03F021F43641C042CFAD3604605F050
:1053C0000306294646B1344603E001F8013B401E7E
:1053D000641C08B1042CF8D30A4601E080C2001F07
:1053E0000428FBD2114602E001F8013B401E0028D0
:1053F000FAD1BDE8F081000070B504460D461646AE
:1054000007F01CFA00202C49087015E02B4A0821EF
:10541000642002F045FE2A48007BC0F3001030B142
:105420002748007B20F010002549087308E0224837
:105430000078401C204908701F4800781428E5D3E4
:1054400000BF1D480078142804D31EA00AF078FB82
:10545000002070BD32462946204600F0FFF80020AB
:105460001549087013E0154A0821642002F018FE5F
:1054700013480D30005D012804D1002110480D3083
:10548000015508E00C480078401C0B4908700A4898
:1054900000783228E7D300BF07480078322804D3C9
:1054A00011A00AF04DFB0020D3E701210448401C65
:1054B00001550120CDE7000022030020000000205C
:1054C000B65A0020726573706F6E6420636D643A23
:1054D0004154434D445F4E45544F50454E207469EE
:1054E0006D656F7574000000726573706F6E642077
:1054F000636D643A4154434D445F4349504F5045B6
:105500004E2074696D656F75740000002DE9F043DD
:1055100091B004460D461646002700BF3C2101A865
:10552000FAF7A8FE234633A23C2101A800960AF010
:1055300017FB804608F1010038B9414632A00AF055
:10554000FFFA002011B0BDE8F08310A800231A462E
:1055500019460090344801F035FC344890F8660054
:10556000012836DD0A2C00DC35B910AA00212E48AE
:1055700001F050FD0020E5E701A8FAF798FE1FFAB8
:1055800080F9494601A807F0A7FE10AA0821322099
:1055900002F086FD0EE0264A0821322002F080FD4E
:1055A0002448005D012803D100212248015503E071
:1055B000781CC7B2642FEED300BF642F09D11EA0A0
:1055C0000AF0BEFA10AA0021174801F023FD0020BE
:1055D000B8E73146284607F07FFE10AA002112489E
:1055E00001F018FD124A08214FF47A7002F058FDBC
:1055F0000120A7E741542B43495053454E443D25D4
:10560000642C25640D0A0000736E7072696E7466F6
:10561000206572726F722C20746865206C656E2034
:105620006973202564000000105000207E020020D5
:1056300000000020C55A0020726573706F6E6420F0
:10564000636D643A4154434D445F53454E44414376
:105650004B2074696D656F75740000002DE9F0438F
:1056600091B005460E4617460EB10A2D03DD002007
:1056700011B0BDE8F0832B4611A23C2102A8CDE970
:1056800000670AF06DFA0446601C28B9214614A090
:105690000AF056FA0020EBE702A8FAF708FE1FFA14
:1056A00080F8414602A807F0A1FE814602A8FAF759
:1056B000FEFD814501D10120DAE70020D8E7000096
:1056C00041542B4349504F50454E3D25642C2254A4
:1056D0004350222C222573222C25640D0A00000041
:1056E000736E7072696E7466206572726F722C20B0
:1056F000746865206C656E20697320256400000065
:105700007CB505460020FBF705FD0446002001900E
:10571000552000900DB900207CBD287808B90020E4
:10572000FAE7AD4A08214FF4FA6002F0B9FC06F03E
:1057300091FFA94A08214FF4FA6002F0B1FC07F08A
:1057400055F8A54A08214FF47A7002F0A9FC06F03A
:10575000A5FF0020A149086011E09F4A08216420AC
:1057600002F09EFC9E488079012803D100209C49CC
:10577000887108E099480068401C9849086097487B
:1057800000681428E9D300BF94480068142804D1A5
:1057900094A00AF0D5F90020BEE7284606F092FF53
:1057A00000208E49086011E08B4A0821322002F067
:1057B00077FC8B48C079012803D100208849C87143
:1057C00008E086480068401C8449086083480068F7
:1057D0002828E9D300BF81480068282804D181A087
:1057E0000AF0AEF9002097E795F8640038B305F1A8
:1057F000640006F0ABFF00207849086011E0764AAB
:105800000821322002F04CFC7548007A012803D1AF
:1058100000207349087208E070480068401C6F4916
:1058200008606E4800682828E9D300BF6B4800680C
:10583000282804D16BA00AF083F900206CE706F059
:1058400017FF00206549086011E0634A08213220F3
:1058500002F026FC6248407A012803D1002060490A
:10586000487208E05D480068401C5C4908605B487D
:1058700000682828E9D300BF58480068282804D1C8
:1058800060A00AF05DF9002046E72068B0F5483FC7
:1058900004D964A00AF054F900203DE74E4802F014
:1058A0005BFC65490860084600686449086083E05D
:1058B00020680199884201D200202DE720680199D3
:1058C00088420FD1042301AA012107200BF0B8FE62
:1058D00001204349C87201236A46002107200BF0CA
:1058E000AFFE6EE020680199401AB0F5FA7F04D946
:1058F0004FF4FA7006F0CAFF04E02168019A881A92
:1059000006F0C4FF344802F027FC4B4908603448D5
:10591000C07A012813D12068019988420ED104234E
:1059200001AA012107200BF08BFE01202C49C8722F
:1059300001236A46002107200BF082FE41E03E4829
:1059400000683E490968401A3D49884204D93DA093
:105950000AF0F6F80020DFE60020204908601DE08C
:105960001D4A0821322002F09BFB1D48807A012845
:105970000FD100201A49887204F108026368019966
:10598000491D07200BF05CFE6068019908440190F6
:1059900008E012480068401C104908600F48006881
:1059A0002828DDD300BF0D480068282804D325A08F
:1059B0000AF0C6F80020AFE60948C07A00283FF494
:1059C00077AF00BF06F012FF034A08214FF47A7048
:1059D00002F066FB01209FE6000000201403002077
:1059E000B65A0020726573706F6E6420636D643AFE
:1059F00048545450494E49542074696D656F75740C
:105A000000000000726573706F6E6420636D643A0D
:105A100048545450204745542074696D656F75741F
:105A20000000000068747470206461746120746FF9
:105A30006F206C656E000000180300201C0300201E
:105A4000C0D40100726573706F6E6420636D643A38
:105A50004854545020524541442074696D656F7517
:105A60007400000010B506F039FD00208849087068
:105A700015E0884A0821642002F012FB8648007B6A
:105A800000F0010030B18448007B20F00100824921
:105A9000087308E07E480078401C7D4908707C4807
:105AA00000781428E5D300BF79480078142804D181
:105AB0007AA00AF045F8002010BD06F027FF00206C
:105AC0007349087016E0734A0821642002F0E8FA6E
:105AD0007148007B0121B1EBD01F06D16E48007BDD
